:020000040800F2
:10000000D8110020C9010008EB180008AF1700083C
:10001000E918000833030008B733000800000000A7
:10002000000000000000000000000000031C0008A9
:100030003503000800000000011C0008051C000832
:10004000E3010008E3010008E3010008E301000800
:10005000E3010008E3010008E3010008E3010008F0
:10006000E3010008E3010008E3010008E3010008E0
:10007000E3010008E3010008E3010008E3010008D0
:10008000E3010008E3010008E3010008E3010008C0
:1000900041330008E3010008E3010008E301000820
:1000A000E3010008E3010008E3010008E3010008A0
:1000B000E3010008E3010008E3010008E301000890
:1000C000E3010008E3010008E3010008E301000880
:1000D000E3010008E3010008E3010008E301000870
:1000E000E3010008E3010008E301000800F002F862
:1000F00000F05AF80AA090E8000C82448344AAF168
:100100000107DA4501D100F04FF8AFF2090EBAE865
:100110000F0013F0010F18BFFB1A43F0010318473B
:10012000D8360000F83600000A444FF0000C10F8F2
:10013000013B13F0070408BF10F8014B1D1108BF65
:1001400010F8015B641E05D010F8016B641E01F805
:10015000016BF9D113F0080F1EBF10F8014BAD1C55
:100160000C1B09D16D1E58BF01F801CBFAD505E073
:1001700014F8016B01F8016B6D1EF9D59142D6D3CD
:10018000704700000023002400250026103A28BFF5
:1001900078C1FBD8520728BF30C148BF0B607047F9
:1001A0001FB51FBD10B510BD00F08AF81146FFF74E
:1001B000F7FF03F045F900F0A8F803B4FFF7F2FFEA
:1001C00003BC00F0AFF80000094880470948004729
:1001D000FEE7FEE7FEE7FEE7FEE7FEE7FEE7FEE7F7
:1001E000FEE7FEE704480549054A064B7047000054
:1001F0007F1C0008ED000008D80B0020D81100205B
:10020000D80D0020D80D002010B5203AC0F00B808A
:10021000B1E81850203AA0E81850B1E81850A0E80A
:100220001850BFF4F5AF5FEA027C24BFB1E8185064
:10023000A0E8185044BF18C918C0BDE810405FEAD4
:10024000827C24BF51F8043B40F8043B08BF704750
:10025000D20728BF31F8023B48BF11F8012B28BF55
:1002600020F8023B48BF00F8012B70474FF0000216
:1002700000B5134694469646203922BFA0E80C509C
:10028000A0E80C50B1F12001BFF4F7AF090728BF77
:10029000A0E80C5048BF0CC05DF804EB890028BFF3
:1002A00040F8042B08BF704748BF20F8022B11F01C
:1002B000804F18BF00F8012B704770477047704798
:1002C000754600F02BF8AE4605006946534620F00F
:1002D0000700854618B020B5FFF784FFBDE8204031
:1002E0004FF000064FF000074FF000084FF0000BF2
:1002F00021F00701AC46ACE8C009ACE8C009ACE8A5
:10030000C009ACE8C0098D46704710B50446AFF38C
:1003100000802046BDE81040FFF74FBF00487047FF
:10032000740B002001491820ABBEFEE72600020036
:100330007047FEE7704772B6FEE7000070B50446EE
:1003400000F008F90546601C02D004480078044417
:1003500000F000F9401BA042FAD370BD84010020D8
:100360002DE9F84FDFF8B891002409F1040A0AF1E9
:10037000040B23460F270BF1040EC9E00125A5400D
:100380002A40AA427DD1674ED1F804C0ACEB0608E2
:10039000B44532D014DCBCF1030F3AD009DCBCF117
:1003A000000F2AD0BCF1010F1CD0BCF1020F31D1DB
:1003B0001DE0BCF1110F17D0BCF1120F2AD119E0CA
:1003C000B8F5881F19D006DCB8F5803F15D0B8F510
:1003D000801F1FD111E0B8F5001F0ED0B8F5041F23
:1003E00018D10AE0CB6815E0CB681B1D12E0CB6882
:1003F00008330FE0CB680C330CE08B682BB1012B7A
:100400004FF0080303D0456104E0042302E00561D6
:1004100000E00023FF2A01D8064601E000F10406AF
:100420004FEA840501D9A5F12005D6F8008007FA26
:1004300005FC28EA0C0803FA05F548EA0508C6F8A1
:1004400000804D68ED0062D5374DAE6946F001067B
:10045000AE61AD6924F0030605F001050095334D4A
:1004600006EB050CDCF80850A607360F07FA06F86D
:1004700025EA0805DFF8B880404503D14FF00008B1
:1004800017E044E0DFF8AC80404502D14FF00108AE
:100490000FE0DFF8A480404502D14FF0020808E0E9
:1004A000DFF89880404502D14FF0030801E04FF09B
:1004B000040808FA06F848EA0508CCF808804D68F0
:1004C000D9F80060ED034D4601D5164300E0964390
:1004D0002E604D68DAF80060AD03554601D516432D
:1004E00000E096432E604D68DBF80060ED025D464B
:1004F00001D5164300E096432E604D68DEF800609B
:10050000AD02754601D5164300E096432E60641C8B
:100510000D682A46E5407FF431AFBDE8F88F000052
:1005200000040140000011100010024000000140D2
:1005300000080140000C014000100140001401407F
:100540008068084000D0012070470AB101617047FF
:100550000904FBE70148806870470000840100201F
:10056000024881680278114481607047840100204C
:10057000074810B5016841F010010160032000F048
:1005800075F80F2000F006F800F024F8002010BDE8
:100590000020024070B50D4D04464FF47A71287862
:1005A000B1FBF0F00A490968B1FBF0F001F028F85E
:1005B00048B9102C07D200222146501E00F036F810
:1005C00000206C6070BD012070BD0000840100201F
:1005D000900100200C4808B5816941F0010181615A
:1005E000816901F001010091C16941F08051C1614F
:1005F000C06900F0805000900448416821F0E0613B
:1006000041F00071416008BD00100240000001404F
:10061000002809DB00F01F02012191404009800001
:1006200000F1E020C0F8001170470000F0B40E4B5C
:100630001B680C46C3F30223C3F10705042D00D940
:100640000425191D072901D2002300E0DB1E012625
:1006500006FA05F1491E214099409E40761E16403B
:100660003143F0BC02F0A8BE0CED00E0064900F0FA
:10067000070208684FF6FF03184040EA0220034AC9
:1006800010430860704700000CED00E00000FA0520
:1006900010B50C0607D501F0070101EB810100EB55
:1006A000C100283005E001EB810100EBC10000F53D
:1006B000B47099B232B1012202730181190C4181E7
:1006C000002010BD00220273C180F9E7704701EBE2
:1006D000810200EBC202D0F8E802D26B01F09BBDB0
:1006E00001EB810200EBC202D0F8E802D2F87C21D3
:1006F00001F0F4BD70B504460B0601F0070000EBF5
:10070000800104EBC1014FF001024FF0000503D559
:1007100081F82920283103E081F8695101F5B4718D
:10072000087094F8A802012808D084F8A82220684C
:1007300002F004FA84F8A852002070BD022070BDB7
:1007400070B5044601F00F006268904201D90120A3
:1007500070BD0B0601F0070000EB800104EBC10146
:100760004FF001024FF0000503D581F82920283110
:1007700003E081F8695101F5B4718D70087094F847
:10078000A802012808D084F8A822206802F073FA91
:1007900084F8A852002070BD022070BD2DE9F05FE2
:1007A00004685FEA424C0B788D69B4F850C04FF092
:1007B00000064BF68F7948F2800A48F68F7B48F2A4
:1007C000C00E4FF480672AD54FF0020808EBC3082B
:1007D000C44407EB4C07E45BC4F30904A54203D30C
:1007E0002D1B8D6101D00BE08E61066836F8235019
:1007F00005EA090585F4005545EA0A0526F823505F
:10080000520609D50D78036833F8252002EA0B0259
:1008100042EA0E0223F8252084B30A8929E04FF02A
:10082000060808EBC308C44407EB4C07E45BC4F3B9
:100830000904A54203D32D1B8D6101D00BE08E610D
:10084000066836F8235005EA090585F4005545EA9F
:100850000A0526F82350520609D40B78056835F8A6
:10086000232002EA0B0242EA0E0225F823202CB1D3
:100870004A8949690068234602F06CFD2046BDE8BC
:10088000F09F2DE9F05F054600680C465FEA426C78
:1008900016468B692278B0F850C048F68F774CF234
:1008A00080094FF6FF7B4FF4004E4FF4806A4FF003
:1008B00000017BD54FF0020808EBC208E0440AEBC8
:1008C000480C30F80C00C0F30900834211D91B1A00
:1008D000A3610FD0730407D52E6836F822303B4051
:1008E00043EA090326F8223094F82420012A50D044
:1008F0004EE1A161607810B1012813D01AE0286898
:10090000B0F85030184400EB0210B0F8042422F480
:10091000F842A0F80424B0F8042442F40042A0F8FD
:10092000042407E02868B0F85030184400EB0210A7
:10093000A0F804146278286812B1012A11D018E0D6
:10094000B0F850100844217800EB0110B0F80C14F6
:1009500021F4F841A0F80C14B0F80C1441F4004153
:1009600005E0B0F850201044227800EB0210A0F807
:100970000C1421782846FFF7AAFE7004B8D5217818
:100980002A6832F82100384040EA090022F82100A4
:10099000FEE0626902446261E2690244E261236945
:1009A000226A9A4203D31846111A04E038E084F808
:1009B00024100AB110462162617811B1012923D0B7
:1009C0002BE02968B1F850201144227801EB021184
:1009D00001F2044148B13E280FD84208C30700D0B5
:1009E000521C0BEA82220A8017E00A8822F4F8429D
:1009F0000A800A8842F40042F5E74209C30600D1A2
:100A0000521E4EEA8222EEE72968B1F850201144C6
:100A1000227801EB0211A1F8040483B22289B3E029
:100A20004FF0060808EBC208E0440AEB480C30F827
:100A30000C00C0F30900834211D31B1AA3610FD02D
:100A4000730407D42E6836F822303B4043EA09038A
:100A500026F8223094F82420012A50D098E0A16191
:100A6000607810B1012813D01AE02868B0F850302F
:100A7000184400EB0210B0F8042422F4F842A0F865
:100A80000424B0F8042442F40042A0F8042407E04F
:100A90002868B0F85030184400EB0210A0F8041495
:100AA0006278286812B1012A11D018E0B0F850100D
:100AB0000844217800EB0110B0F80C1421F4F8413F
:100AC000A0F80C14B0F80C1441F4004105E0B0F8A3
:100AD00050201044227800EB0210A0F80C1421786A
:100AE0002846FFF7F4FD700452D42278296831F8C3
:100AF0002200384040EA090021F8220048E06269FB
:100B000002446261E2690244E2612369226A9A4214
:100B100003D31846111A216204E00AB1104621627B
:100B200084F824106278296812B1012A22D029E0C1
:100B3000B1F850201144227801EB021101F20C416E
:100B400048B13E280FD84208C30700D0521C0BEA18
:100B500082220A8016E00A8822F4F8420A800A8873
:100B600042F40042F5E74209C30600D1521E4EEAA4
:100B70008222EEE7B1F850201144227801EB0211F5
:100B8000A1F80C04628983B26169286802F000FC54
:100B900021782A6832F8210048F6BF73184080F0A7
:100BA000300048F28003184322F821000020BDE8FD
:100BB000F09F2DE9F04104460F0601F0070000EB1D
:100BC000800104EBC1014FF001064FF0000503D591
:100BD00081F82960283103E081F8695101F5B47189
:100BE00008700A61CB704A7802B1C881022B00D12B
:100BF0000D7194F8A802012809D084F8A862206831
:100C000001F06EFE284684F8A852BDE8F08102206B
:100C1000FBE770B50C4601F0070505EB850100EB1D
:100C2000C101C1E95F230022C1F8842181F8692153
:100C300081F8685101F5B4716207006802F070F83C
:100C4000002070BD70B504460D4601F007006168D4
:100C5000884201D9012070BD29064FF000064FF0EF
:100C6000010207D500EB800104EBC10181F82920C6
:100C7000283107E005EB850104EBC10181F86961CA
:100C800001F5B4718A70087094F8A802012807D0A1
:100C900084F8A822206802F02AF8680702D006E04B
:100CA000022070BD04F52C71206801F0E2FF84F889
:100CB000A862002070BD70B50C4601F0070505EB79
:100CC000850100EBC101C1E90F23012281F84C200D
:100CD0008B6400234B6481F8292001F8285F6207A8
:100CE000006802F01DF8002070BD1FB504460068C2
:100CF00002F02CFB000402D5204600F0F7FD20682E
:100D000002F024FB40050CD5206830F8441F21F484
:100D100080610180204600F01FF90021204600F08C
:100D200036F9206802F012FB400405D5206830F83F
:100D3000441F21F480410180206802F007FB8004F9
:100D400005D5206830F8441F21F400510180206847
:100D500002F0FCFAC00414D5206830F8401F21F0DE
:100D600004010180206830F8401F21F00801018053
:100D7000204600F004F9206830F8441F21F4805127
:100D80000180206802F0E2FA00053ED522680020CA
:100D9000694632F8203021F81030401CC0B20828D3
:100DA000F7D332F8400F40F001001080206830F88F
:100DB000402F22F0010202802068B0F84420520542
:100DC000FBD530F8442F22F4806202800020236893
:100DD00031F8102023F82020401CC0B20828F6D398
:100DE000206830F8401F41F008010180206830F889
:100DF000441F21F400610180206830F8401F41F059
:100E000004010180204600F0F7F8206802F09EFA05
:100E1000800508D5206830F8441F21F40071018056
:100E2000204600F0B0F8206802F090FAC00505D521
:100E3000206830F8441F21F4807101801FBD00003C
:100E40002DE9F04186B0040004D094F8A9020025F1
:100E500020B108E0012006B0BDE8F08184F8A85276
:100E6000204600F05BF8032084F8A902206801F016
:100E7000F9FE04F11001142288466846FFF7C4F910
:100E800094E80F0001F058FE0226D0BB0021206834
:100E900002F076FA002001270FE000BF00EB80018E
:100EA00004EBC10181F8297001F8280FC881CD70C9
:100EB0000D614D61401CC0B28D6161688142EDD809
:100EC000002011E000EB800104EBC10181F86951C1
:100ED00081F8680181F86B51C1F87851C1F87C51F3
:100EE000401CC0B2C1F8805161688142EAD8142226
:100EF00041466846FFF788F994E80F0001F0A9FE23
:100F000010B184F8A962A5E784F8245084F8A97286
:100F1000206801F09CFE00209DE7000008B50068F5
:100F20000B49884212D10B48C16941F40001C161EB
:100F3000C069002200F40000009011461420FFF761
:100F400075FBBDE808401420FFF762BB08BD000038
:100F5000005C00400010024070B504468068012526
:100F6000022801D0FFF7E7F92946D4F8E80201F09A
:100F70008EFAD4F8E802BDE8704001F04ABAD0F821
:100F8000E80201F06EBAD0F8E80201F074BA10B5C8
:100F9000044690F8A80201280BD0012084F8A8028A
:100FA00084F82410206802F0EDF9002084F8A802EB
:100FB00010BD022010BDD0F8E82200F52C711046BB
:100FC00001F071BA10B5044690F8A802012810D0BB
:100FD000012084F8A802206802F0A8F90121204627
:100FE000FFF774FB206801F030FE002084F8A802AF
:100FF00010BD022010BD000010B50446D0F8E80274
:1010000001F090FAA069002804D00348016841F07B
:101010000601016010BD000010ED00E02DE9F8436D
:1010200005460078354CC00754D0E0690026C00062
:1010300008D4E06940F08050E061E069012600F0EA
:10104000805000902E480168C90512D4016880467E
:1010500041F480710160FFF77DFA074605E000BFAB
:10106000FFF778FAC01B642823D8D8F80000C00521
:10107000F6D5206A10F4407021D0A98801F440719F
:1010800081421CD0206A1F49012220F440700A606E
:1010900000220A602062C00711D0FFF75BFA074602
:1010A00041F2883808E000BFFFF754FAC11B414500
:1010B00002D90320BDE8F883206A8007F4D5206AAE
:1010C000696820F44070084320621EB1E06920F096
:1010D0008050E0612878800705D56068A96820F411
:1010E0004040084360602878C00605D56068E9681C
:1010F00020F48000084360600020DBE7001002401D
:1011000000700040400442422DE9F0470F460500C0
:1011100061D0434E306800F00700B84209D2306811
:1011200020F0070038433060306800F00700B84214
:1011300051D128683B4C810712D5400703D5606820
:1011400040F4E06060602878000703D5606840F4F0
:10115000605060606068A96820F0F000084360603B
:101160002878C00728D06868012810D02168022894
:1011700010D0890700292EDA616821F003010143AC
:101180006160FFF7E7F9804641F288390DE0216898
:101190008903EFE78901EDE7FFF7DCF9A0EB080130
:1011A000494502D90320BDE8F0876068696800F00E
:1011B0000C00B0EB810FEFD1306800F00700B842AF
:1011C0000BD9306820F0070038433060306800F0F9
:1011D0000700B84201D00120E5E72878400705D58F
:1011E0006068E96820F4E0600843606028780007E0
:1011F00006D56068296920F4605040EAC10060604B
:1012000000F038F86168084AC1F30311515CC84026
:101210000649086006480068FFF7BCF90020C2E7ED
:101220000020024000100240E0370008900100203A
:10123000880100200448054900684968044AC1F350
:101240000221515CC840704790010020001002400C
:10125000F03700080448054900684968044AC1F3AA
:10126000C221515CC840704790010020001002402C
:10127000F037000812A185B00FC98DE80F0014A047
:10128000144A006804905168134801F00C03042BC1
:1012900010D0082B0ED1C1F38343C9031DF80300FE
:1012A0000AD5516804AAC1F34041515C0A4A50432F
:1012B000B0FBF1F005B0704708494843FAE7000079
:1012C00002030405060708090A0B0C0D0E0F101087
:1012D000010200000010024000127A0000093D00E7
:1012E0002DE9F84F040070D02078C04DC00749D0D8
:1012F0006868C0F38100012807D06868C0F38100E6
:10130000022809D16868C00306D52868800339D54A
:1013100060680028E7D035E06068B0F5803F0BD00A
:1013200010B1B0F5A02F11D0286820F480302860CB
:10133000286820F4802002E0286840F4803028608B
:10134000606890B1FFF706F906460AE0286840F4A5
:1013500080202860F0E700BFFFF7FCF8801B6428BE
:1013600073D828688003F7D50CE0FFF7F3F806463A
:1013700005E000BFFFF7EEF8801B6428F0D828686E
:101380008003F7D420789A4E80074FF001094FF080
:10139000000839D5686810F00C0F07D06868C0F3F2
:1013A0008100022809D16868C00306D42868800734
:1013B00014D52069012808D110E02069B0B1C6F821
:1013C0000090FFF7C7F8074605E00AE1FFF7C2F80B
:1013D000C01B0228C4D828688007F7D5286861692F
:1013E00020F0F80040EAC10028600DE0C6F8008057
:1013F000FFF7B0F8074604E0FFF7ACF8C01B02287F
:1014000023D828688007F7D4207800072CD579489E
:10141000A169D9B1C0F80090FFF79CF8074604E035
:10142000FFF798F8C01B02280FD8686A8007F7D525
:1014300071484FF4FA510068B0FBF1F0009000BF22
:101440000098411E0091FAD20EE080E0C0F80080C2
:10145000FFF780F8074604E0FFF77CF8C01B02287E
:1014600075D8686A8007F7D42078400760D5E869A6
:101470000027C00008D4E86940F08050E861E869BE
:10148000012700F0805000905C480168C90513D422
:101490000168834641F480710160FFF75BF8824682
:1014A00006E000BFFFF756F8A0EB0A0064284ED80C
:1014B000DBF80000C005F5D5E06801280AD008B1C6
:1014C000052813D0286A20F001002862286A20F03D
:1014D000040002E0286A40F001002862E06841F25E
:1014E000883B98B1FFF736F882460BE0286A40F057
:1014F00004002862EEE700BFFFF72CF8A0EB0A011A
:1015000059455AD8286A8007F6D50CE0FFF722F82B
:10151000824605E0FFF71EF8A0EB0A0159454CD8BA
:10152000286A8007F6D41FB1E86920F08050E8618E
:10153000E06988B36968C1F38101022944D00228B7
:10154000C6F8608004D0FFF705F8044638E034E0C0
:10155000FFF700F8074604E0FEF7FCFFC01B022877
:101560002BD828688001F7D4206AB0F5803F05D1D8
:101570006868A16820F4003008436860D4E9080175
:101580000843696821F4741108436860C6F86090E4
:10159000FEF7E0FF044606E025E000BFFEF7DAFFB5
:1015A000001B022809D828688001F7D51BE000BF7E
:1015B000FEF7D0FF001B022802D90320BDE8F88FF8
:1015C00028688001F4D40EE00128F7D06868226A08
:1015D00000F48031914204D1616A00F470108842B5
:1015E00001D00120EAE70020E8E7000000100240F7
:1015F00000004242800442429001002000700040FE
:1016000010B5401EB0F1807F01D3012010BD4FF016
:10161000E02460610F21601701F0CEFE0020A06180
:1016200007202061002010BD70B5040004D094F89C
:101630003D00002510B106E0012070BD84F83C504B
:10164000204600F023F8242084F83D002068C1687B
:1016500021F40051C160204600F012FB20680169AE
:1016600021F4904101612068416921F02A01416122
:101670002068C16841F40051C1602564202084F8CD
:101680003D0084F83E00002070BD000030B585B0FC
:101690000024009401940294039400681449884241
:1016A00024D11448816941F480418161816901F448
:1016B00080410491816941F00401816180690E4D8E
:1016C00000F0040004904FF400700090022001909C
:1016D0000320039069462846FEF742FE2815CDE90F
:1016E0000004694628460294FEF73AFE05B030BD74
:1016F0000038014000100240000801402DE9F84385
:10170000044690F83D001F4616460D4620284CD151
:10171000C5B1BEB194F83C00012846D0012084F840
:101720003C004FF00008C4F84080212084F83D00C0
:10173000FEF710FFA6848146E684A068B0F5805FBE
:1017400003D004E00120BDE8F883206928B12E46CB
:101750005FF0000584F83C800EE00026FAE7802167
:10176000204600F0E9FAA0B9AEB116F8010B2168E5
:101770004860E08C401EE084E08C4B464FF0000255
:1017800000970028EBD14FF04001204600F0D4FA3A
:1017900030B10320D7E735F8020BC0F30800E6E7C5
:1017A000202084F83D000020CDE70220CBE7FEE7B3
:1017B000F0B500230A24302537261F4611E000BF6C
:1017C000B4EB107F02D905EB107C01E006EB107C36
:1017D00001F813C001EB430C00015B1C8CF8017095
:1017E000DBB29342ECD3F0BD2DE9F04385B0002489
:1017F00029480094019402940394816941F01001F6
:101800008161816901F010010491816941F0200139
:101810008161816901F020010491816941F0040135
:101820008161816901F004010491816941F008013D
:1018300081618069DFF8648000F008004FF4005592
:101840000490002229464046FEF77FFEDFF85090C4
:1018500047F2F817002239464846FEF776FE009513
:10186000022601250396CDE9015469464046FEF75C
:1018700077FDFF20CDE9000469460A480294FEF78F
:101880006FFD00970396CDE9015469464846FEF77F
:1018900067FD05B0BDE8F083001002400010014074
:1018A000000C01400008014010B500220B490C4813
:1018B00000F08AFC08B1FEF73EFD0A49084800F036
:1018C00057FE08B1FEF737FD054800F0A7FE0028D7
:1018D00003D0BDE81040FEF72EBD10BD340100203E
:1018E000B003002098010020FEE7FEE72DE9F84F45
:1018F000044640F68F7B48F60F7A4FF002094FF40A
:10190000806874E1B0F8441011F00F063AD030F856
:10191000267039047DD530F8261001EA0B0141F01C
:10192000800120F8261006EB860004EBC00595F830
:10193000740105F5B47500286CD0E87802286AD0E7
:101940002878226832F8201048F68F73194048F240
:10195000C003194322F820102878D4F800C03CF8BE
:101960002010BCF8502049047ED509EBC0001118A6
:1019700008EB41003CF800008005800D009074D019
:101980002A89D8E0C9062DD4018801EA0A0141F468
:1019900000410180216804F12805B1F850202B781E
:1019A00009EBC300024408EB4200085AC0F30900E7
:1019B0006064E16B0844E06300212046FEF787FE87
:1019C00094F8240000289CD0A869002899D194F8A4
:1019D0002400216840F08000A1F84C00002084F829
:1019E000240004E1018804F5B4750A0521D5B0F896
:1019F00050202B78062101EBC3010A4408EB420179
:101A0000405A04F52C71C0F30903EB61EA882068A1
:101A100002E0ACE068E07AE001F09CFC2168088814
:101A200000EA0B0040F0800008802046FFF7C3FA70
:101A3000DDE00904D5D5018801EA0B0141F0800100
:101A400001802068B0F850202B78062101EBC301FB
:101A50000A4408EB4201405A83059B0DEB6110D00C
:101A6000696971B1EA8801E058E056E0206801F048
:101A700071FCE96968690844686100212046FEF745
:101A80002FFE2068018809052DD4B0F850100844B5
:101A9000296900F20C4051B13E2910D84A08C90703
:101AA00000D0521C4FF6FF7101EA82210FE001883D
:101AB00021F4F8410180018841F4004107E04A091E
:101AC000C90600D1521E4FF4004141EA8221018033
:101AD000206801884BF68F72114081F4405148F222
:101AE00080021143018082E0D4F800C0BCF850109D
:101AF0002A78062000EBC200014408EB41003CF8C4
:101B000000008005800D00901AD0EA8813E03A4664
:101B100029462046FEF742FE009011E0062101EB27
:101B2000C000111808EB41003CF800008005800D52
:101B3000009005D06A8903466046696901F00AFC95
:101B4000E96900980844E861696900980844686197
:101B5000A86918B129690098814204D929782046DA
:101B6000FEF7BEFD03E02946206801F0D9F83806EB
:101B70003DD506EB860004EBC001206830F8262036
:101B800002EA0A0242F4004220F8262091F82B00D3
:101B90002831032804D018B1022824D1F80522D412
:101BA0002368B3F850200D7809EBC500024408EB18
:101BB0004200185A8A69C0F3090082420CD9121AED
:101BC0008A610BD04A6902444A61CA691044C861FB
:101BD000206801F0A5F80AE000208861E9B22046FB
:101BE000FEF775FD03E03A462046FEF74AFE206800
:101BF000B0F8441009043FF585AE0020BDE8F88F29
:101C000070477047FEF7ACBC30B593B028216846EA
:101C1000FEF72CFB14210AA8FEF728FB0024012064
:101C20000F9410941194010412948DE81300049001
:101C30000005CDE90810022507956846FFF750FB1F
:101C400008B172B6FEE70F20CDE90A054FF48060B7
:101C5000CDE90C4001210AA80E94FFF755FA08B10E
:101C600072B6FEE710200F90800412900FA8FFF7C5
:101C7000D5F9002801D072B6FEE713B030BD704729
:101C800070B5044600680169E26821F440511143CF
:101C900001612169A0680843616908432168CA6835
:101CA00041F20C639A430243CA6020684169A26909
:101CB00021F44071114341611E492068884202D1DC
:101CC000FFF7C8FA01E0FFF7B5FA00EBC00101EB3E
:101CD0000012606864218000B2FBF0F3B3FBF1F303
:101CE0006FF018067343B2FBF0F5B2FBF0F605EBAC
:101CF0008305322303EB0515B5FBF1F5B6FBF1F6D1
:101D000005F0F00505EB0615B2FBF0F6B2FBF0F0BE
:101D1000B0FBF1F06FF01802504306EB800003EBCC
:101D20000010B0FBF1F0216800F00F00284488603B
:101D300070BD0000003801402DE9F041984617467B
:101D40000E460446069D1DE0681C1BD02DB1FEF713
:101D500001FCA0EB0800A84214D92068C16821F456
:101D6000D071C1602068416921F0010141612020EA
:101D700084F83D0084F83E00002084F83C000320F5
:101D8000BDE8F0812068006836EA000004D0002039
:101D9000B842D9D00020F3E70120F9E710B5D0F818
:101DA000B42252689047002010BD134610B50A4671
:101DB000002100F025FB002010BD134610B50A4697
:101DC000002100F0B8FB002010BD10B504468021B2
:101DD00000F096FB2046BDE81040002100F090BBCB
:101DE00010B505210023C0F894121A46194600F0D8
:101DF00007FB002010BD10B50223C261C0F8943269
:101E0000026213460A46002100F095FB002010BD37
:101E100010B504210023C0F894121A46194600F0A8
:101E20008AFB002010BD000010B50A46024903A03D
:101E300000F0E0F8004810BD740600204849442036
:101E4000436F6E6669670000122008800048704783
:101E50005401002010B50A46024903A000F0CAF858
:101E6000004810BD7406002048494420496E74653E
:101E700072666163650000000420088000487047B6
:101E80005001002010B50A46024903A000F0B2F844
:101E9000004810BD7406002053544D6963726F658D
:101EA0006C656374726F6E696373000010B50A46E7
:101EB000024903A000F09EF8004810BD74060020FF
:101EC00053544D333220484944204B4559424F41E9
:101ED0005244000010B51A2008800A480168001D0D
:101EE0000468001D0068081809D008220649FFF799
:101EF0005FFC0549042210312046FFF759FC0248D7
:101F0000801E10BDE8F7FF1F6A010020F8B50446E7
:101F10000020ADF8000048880D46010A082948D283
:101F2000DFE801F04704091747473C45D4F8B012F1
:101F3000207C0A6819E0207C02260028D4F8B4022C
:101F400005D0C16A68468847014646703EE0816A0E
:101F5000F8E7C0B206282CD2DFE800F0030A10141C
:101F6000181CD4F8B002426805E0694690471CE0AE
:101F7000D4F8B0028268E2B1207CF6E7D4F8B0026F
:101F8000C268F8E7D4F8B0020269F4E7D4F8B00206
:101F90004269F0E7D4F8B0028269ECE7207C40B9EE
:101FA000D4F8B402416B6846884701460EE0207CB5
:101FB00020B129462046FFF708FFF8BDD4F8B40247
:101FC000016B68468847014607204870BDF800004D
:101FD00048B1EA8852B1824200D90246ADF80020E9
:101FE0002046FFF708FFE8880028E6D12046FFF7E3
:101FF0000FFFF8BD70B5002300281ED00446002551
:1020000002E06D1CEDB2641C2678002EF9D102248A
:1020100004EB450414801278CA545B1C0322CA5492
:1020200000245B1C06E0CA545B1CDAB28C54521CC0
:10203000D3B2401C0278002AF5D170BD01004FF0E8
:10204000000004D0012901D0022901D002207047EC
:1020500001207047D0F8B80200210173084670478C
:1020600070B50446812100F0CDF80025E562D4F872
:10207000B80218B100F02FFCC4F8B852002070BDAF
:102080000A21018000487047480200202221018077
:1020900000487047D001002022210180004870478D
:1020A000F40100202221018000487047180200201E
:1020B00010B5044604230322812100F095F9012084
:1020C000E062102000F008FCC4F8B80218B100214A
:1020D0000173084610BD022010BD10B5134690F8DC
:1020E0009C42D0F8B822032C07D1147B2CB90124D0
:1020F00014730A46812100F01EFA002010BD000072
:1021000038B503460022D0F8B802ADF800201446D6
:102110000A7812F0600216D0202A4AD14A78022AA0
:102120000ED0032A06D00A2A06D00B2A41D189787C
:10213000016042E001222BE04988090A41603CE04D
:102140000122011D25E04A7832B1062A0BD00A2A65
:1021500023D00B2A2DD128E093F89C02032828D104
:102160000222694615E048882222B2EB102F05D1E1
:10217000CA883F2A00D93F22124809E02122B2EB47
:10218000102F16D10F48CA881838092A00D90922F9
:1021900001461846FFF72FFE0FE093F89C22032A12
:1021A00007D1012200F10801F3E793F89C22032AEA
:1021B00005D01846FFF709FE0224204638BD89786D
:1021C0008160FAE75402002010B580B1D0F8B43233
:1021D00013B10023C0F8B43209B1C0F8B012012124
:1021E00080F89C12027000F0BBF8002010BD0220A5
:1021F00010BD10B5D0F8C002FEF7A2FABDE810403D
:10220000FFF71CBF10B5D0F8C002FEF773FABDE8A7
:102210001040FFF713BF2DE9F0411746044651B1B6
:10222000D4F8B40242691AB194F89C02032851D040
:102230000220BDE8F081D4F89432002504F11400A6
:10224000022B03D0042B3AD0C3B33CE0D0E90363A4
:102250009E4207D9F11AC1608AB239462046FFF77B
:10226000ACFD12E08068B0FBF3F103FB110199B9FA
:10227000984211D3D4F8981288420DD20022114608
:102280002046FFF79AFDC4F8985200231A461946D3
:10229000204600F0B5F816E0D4F8B402C16829B1C0
:1022A00094F89C02032801D12046884780212046CB
:1022B00000F026F92046FFF793FD04E0FFE78021B8
:1022C000204600F01DF994F8A002012804D184F8FA
:1022D000A05201E0204690470020AAE770B51546BD
:1022E000044649B1D4F8B40282691AB194F89C0248
:1022F000032830D0022070BDD4F8941204F5AA70DF
:10230000032902D005291ED027E0D0E903218A4203
:102310000BD9531AC3600846834200D303469AB2CE
:1023200029462046FFF741FD17E0D4F8B4020169C1
:1023300029B194F89C02032801D120468847204601
:10234000FFF766FD09E000200146C4F8940220462C
:1023500000F0D6F801E020469047002070BD000054
:1023600010B517490446C1F8E802C0F8C012154874
:102370000860082048600220886000208861C861E9
:1023800008620846FEF75CFD08B1FDF7D4FF0022A5
:10239000D4F8C0021823114604F53074FEF778F91A
:1023A0005823002280212068FEF772F94FF48073D1
:1023B000002281212068FEF76BF9002010BD00008B
:1023C00088080020005C00400A0601F07F01D0F878
:1023D000C00201EB810100EBC10002D590F82A0098
:1023E000704790F86A01704710B51C461346D0F844
:1023F000C0022246FEF7DDFBBDE81040FFF71EBE1F
:1024000010B5D0F8C002FEF704FCBDE81040FFF79D
:1024100015BE70B50022044640231146FFF7E4FFC5
:1024200040260125C4F864613346002280212046FD
:10243000C4F85851FFF7D8FF6662A56184F89C5232
:102440000020C4F894026060C4F8A402D4F8B80272
:1024500028B1D4F8B40200214268204690470020F9
:1024600070BD90F89C12042903D190F89D1280F859
:102470009C120020704710B590F89C12032904D1DB
:10248000D0F8B412C96901B18847002010BD0174A9
:102490000020704710B5D0F8C002FEF778FDBDE807
:1024A0001040FFF7CBBD70B5044600F52A70054615
:1024B00000F04AF80120C4F89402B4F8AE02C4F85F
:1024C000980294F8A80210F01F010AD001290DD03B
:1024D000022910D000F08001204600F011F8002001
:1024E00070BD2946204600F09EF8F8E729462046B0
:1024F00000F0CAF9F3E72946204600F01DF9EEE79F
:1025000010B5D0F8C002FEF79DFBBDE81040FFF704
:1025100095BD10B5D0F8C002FEF754FDBDE81040DF
:10252000FFF78CBD90F89C1280F89D12042180F872
:102530009C120020704710B5D0F8C002FEF7BBFB1C
:10254000BDE81040FFF77ABD0A7802704A78427001
:102550008A78CB7802EB032242800A794B7902EB2E
:10256000032282808A79C97902EB0121C1807047F8
:102570000246002011B1C2F8B41270470220704721
:1025800010B5D0F8B42202241AB11268904700B9ED
:102590000024204610BD000070B50E461E4D8978FF
:1025A00004462970012931D894F89C0202280BD0E6
:1025B00003280FD031462046FFF707FC2978204634
:1025C000BDE87040FFF7EABBD9B10320616084F831
:1025D0009C0209E071B16068884212D0C1B2204605
:1025E000FFF7DCFB297861602046FFF7C9FF02286E
:1025F0000CD006E0022084F89C0220466160FFF7C0
:10260000CDFB2046BDE87040FFF702BC31462046B6
:10261000BDE87040FFF7D9BB9401002010B5FFF76B
:1026200078FF002010BD2DE9F0410A78002612F055
:10263000600208D0202A01D0402A70D1D0F8B422FC
:10264000926890476DE04B78002201250A2B66D2F4
:10265000DFE803F0405D6557650805652C29FFF745
:1026600055FC5EE004468888D8B9C888C8B948884F
:10267000802816D200F07F0794F89C02032810D01F
:1026800084F89E7239462046FFF704FF2046FFF784
:10269000BFFB1FB1022084F89C0242E084F89C52E8
:1026A0003FE020463BE0FFF777FF3AE0CB88012B85
:1026B00035D190F89C32012B04D0022B02D0032B91
:1026C0002DD104E08260012200F1080116E0012210
:1026D000011D13E090F89C22012A03D0022A01D0A8
:1026E000032A1CD1CA88022A19D1C560D0F8A412C5
:1026F00009B10321C160022200F10C01FFF77BFB4D
:102700000FE0498801290CD1C0F8A45211E090F8DB
:102710009C32012B08D0022B06D0032B04D0FFF7EC
:1027200054FB3046BDE8F08149880129F9D1C0F851
:10273000A422FFF76DFBF4E72DE9F0410A460446B9
:1027400010780027097910F060030AD0202B01D0FF
:10275000402B50D1D4F8B4021146836820469847E4
:102760008FE0C0F34110012806D05078D0B3012883
:102770002AD003283FD107E0D4F8B4021146836879
:102780002046BDE8F041184794F89C02022802D088
:10279000032872D10AE071B380296ED02046FFF77A
:1027A000AFFE80212046FFF7ABFE6AE0508838B9C3
:1027B00031B1802904D0D08810B92046FFF7A0FE9F
:1027C0002046FFF725FB5CE094F89C020228E2D04B
:1027D000032852D1508898BB4806F1D02046FFF715
:1027E00008FDEDE7FFE794F89C020026022803D0DD
:1027F000032842D112E040E009B180293DD108060A
:1028000001F07F0000EB800004EB800101D5143162
:1028100001E001F5AA7102220E602AE0080601F02B
:102820000F0000EB800004EB80000AD5806920B324
:1028300001F07F0000EB800004EB800514350BE015
:102840001FE0D0F85801C0B101F07F0000EB80001C
:1028500004EB800505F5AA7541B1802906D0204614
:10286000FFF7B2FD10B10120286000E02E600222C7
:1028700029462046FFF7BFFA03E011462046FFF73E
:10288000A4FA3846BDE8F08170B5054608780C46D4
:1028900010F0600003D0202801D0402816D195F810
:1028A0009C02012803D0022801D003280ED12079F0
:1028B00001280BD8D5F8B402826828469047E188F1
:1028C000014306D12846FFF7A3FA02E02846FFF7A6
:1028D0007CFA002070BD70470048704774080020E3
:1028E0002DE9F0470C78002630F8243048F68F1296
:1028F0001340CA78002A7DD0012A7CD0022A02D057
:10290000032A7FD0012648F28002134320F82430A6
:102910000D7830F8254048F68F731C402C43144343
:1029200020F825400D7B48F2C00C48F6BF744CF2ED
:1029300080074BF68F79EDB391F80080C24630F8EE
:10294000285048F280181D4045EA080520F82A5012
:10295000B0F8505091F80080054405EB0815B1F827
:10296000088028F00108A5F80084B0F8505091F8CC
:102970000080054405EB0815B1F80A8028F001082D
:10298000A5F808844D78002D0D7830F825804FEAA1
:1029900048487DD0B8F1000F07DA30F8258008EA02
:1029A000030848EA070820F825800F7830F82750F8
:1029B0006D0600E02CE006D530F827501D4045EAB2
:1029C0000C0520F82750CB780D78012B30F82530F6
:1029D00003EA040301D083F02003134320F82530D9
:1029E0000B7830F8231001EA0901114320F8231075
:1029F000304602E003E008E004E0BDE8F08743F47D
:102A0000007380E743F4C0637DE743F480637AE7B3
:102A10004D782DB3B0F850500F78054405EB0715ED
:102A2000CF8827F00107A5F800740F7830F82750F9
:102A30006D0606D530F827501D4045EA0C0520F8F4
:102A40002750CB78012B06D00B7830F8231021408B
:102A500081F02001C9E70B7830F823102140C4E74A
:102A6000B0F850400D78044404EB0514CD8825F0EF
:102A70000105A4F80854B0F850400D78044404EB64
:102A800005140D6904F20C4475B13E2D14D800E014
:102A900030E04FEA550CED0701D00CF1010C4FF678
:102AA000FF7505EA8C2511E0258825F4F845258079
:102AB000258845F4004509E04FEA551CED0601D193
:102AC000ACF1010C4FF4004545EA8C2525800D78CA
:102AD00030F82540640405D530F825401C403C43BF
:102AE00020F825400B7830F8231001EA090181F421
:102AF00040517AE7B8F1000F07DA30F8258008EA8C
:102B0000030848EA070820F825800F7830F8275096
:102B10006D0606D530F827501D4045EA0C0520F813
:102B200027500D7830F8253003EA090383F4405329
:102B3000134320F825308EE7002070472DE9F0433D
:102B400091F80C804F780A7848F6BF7C4BF68F7965
:102B500048F2800348F2C0054CF2800648F68F74B4
:102B6000B8F1000F28D0002F30F822704FEA474705
:102B700048D0002F05DA30F822702740374320F87C
:102B800022700A7830F822707F0605D530F822705E
:102B900027402F4320F822700D7830F8252022405E
:102BA000324320F825200C7830F8242002EA0C0269
:102BB0001A4320F824201AE07FB130F8226076060C
:102BC00005D530F8226026402E4320F822600A788E
:102BD00030F8221001EA0C010EE030F822506D04AA
:102BE00005D530F822502540354320F822500A7888
:102BF00030F8221001EA0901194320F822100020C0
:102C0000BDE8F083002F05DA30F822702740374303
:102C100020F822700A7830F82260760605D530F860
:102C2000226026402E4320F822600E7830F82620BD
:102C300022402A4320F826200C7830F8242002EA8B
:102C400009021A4320F82420C1E700207047002021
:102C50007047012120F8401F0021018081800182FE
:102C60000846704730F8401F21F43F4101800020A2
:102C700070470020704730B50A7BB2BB4A7848F6EF
:102C80008F7548F28004C2B10B7830F823205206C9
:102C900007D530F823202A4048F2C0052A4320F8FF
:102CA0002320CA78012A20D00A7830F8221048F66A
:102CB000BF73194081F0200114E00A7830F8223007
:102CC0005B0407D530F822302B404CF280052B43B3
:102CD00020F822300A7830F822104BF68F73194012
:102CE00081F44051214320F82210002030BD10B55E
:102CF0004A780978002A48F2800330F8212005D06C
:102D000048F6BF74224082F0100204E04BF68F7444
:102D1000224082F480521A4320F82120002010BD66
:102D20002DE9F0470E464B78097B04464FF0000929
:102D300048F68F7248F2800A4FF6FF774FF400484A
:102D4000012B09D000296ED0F07802286CD0012820
:102D50006BD00120BDE8F087B5693069854200D9A4
:102D60000546C9B1F17848F28013022923D03178A1
:102D700034F821001040184324F82100306A401B29
:102D80003062307834F82010490671787ED50029F9
:102D90007DD001297CD03FE1ABB2F2882046716939
:102DA00000F0F6FAB4F850003178204400EB01103E
:102DB000A0F80454EAE0316A81426AD9317834F8E3
:102DC00021001040184324F82100306A401B306273
:102DD000307834F82010490671786CD511B101298A
:102DE00024D02AE0B4F85010214401EB001000F286
:102DF0000C404DB13E2D0FD86908EA0700D0491CA0
:102E000007EA8121018018E0018821F4F84101805E
:102E1000018841F40041F5E76909EA0600D1491E3D
:102E200048EA8121EEE79CE1BCE126E2B4F85020BB
:102E3000111901EB0010A0F80C547289ABB22046B6
:102E4000716900F0A5FA7069284470613169306ACF
:102E5000884202D9401B306202E00546C6F8209045
:102E6000707800287CD1B4F850003178204400EB11
:102E7000011000F204406DB13E2D13D86908EA0735
:102E800000D0491C07EA8121018012E001E19BE0AA
:102E9000BBE084E0018821F4F8410180018841F41D
:102EA0000041F1E76909EA0600D1491E48EA81219B
:102EB000EAE7328965E011B1012921D027E0B4F8B1
:102EC0005010214401EB001000F204404DB13E2DA2
:102ED0000FD86908EA0700D0491C07EA8121018060
:102EE00015E0018821F4F8410180018841F4004196
:102EF000F5E76909EA0600D1491E48EA8121EEE7B3
:102F0000B4F85010214401EB0010A0F804543289A9
:102F1000ABB22046716900F03BFA706928447061D9
:102F20003169306A884202D9401B306202E00546AE
:102F3000C6F82090707800287ED1B4F8500031781F
:102F4000204400EB011000F20C4055B13E2D10D88A
:102F50006908EA0700D0491C07EA812101800FE0D7
:102F600072E0018821F4F8410180018841F40041B8
:102F7000F4E76909EA0600D1491E48EA8121EDE734
:102F80007289ABB22046716900F002FA317834F8E8
:102F9000210048F6BF72104080F03000C0E1327866
:102FA00034F8220048F68F63184040EA0A0024F8FB
:102FB0002200B4F850003278204400EB02108BB2AB
:102FC000A0F804343289DDE7B4F85010214401EB55
:102FD000001000F20C404DB13E2D0FD86908EA07F1
:102FE00000D0491C07EA8121018015E0018821F405
:102FF000F8410180018841F40041F5E76909EA06DA
:1030000000D1491E48EA8121EEE7B4F85020111999
:1030100001EB0010A0F80C547289ABB22046716924
:1030200000F0B6F97069284470613169306A8842ED
:1030300003D9401B306203E06EE00546C6F82090DD
:10304000002DA3D0707858B101287FF41EAFB4F8DA
:1030500050003178204400EB0110A0F8045428E718
:10306000B4F850003178204400EB011101F2044122
:103070003E2D06D86808EA0700D0401C07EA8020E9
:1030800005E06809EA0600D1401E48EA8020088071
:103090000FE711B1012921D027E0B4F850102144E5
:1030A00001EB001000F204404DB13E2D0FD869082D
:1030B000EA0700D0491C07EA8121018015E0018858
:1030C00021F4F8410180018841F40041F5E76909E4
:1030D000EA0600D1491E48EA8121EEE7B4F8501013
:1030E000214401EB0010A0F804543289ABB2204611
:1030F000716900F04DF97069284470613169306A76
:10310000884202D9401B306202E00546C6F8209092
:10311000002D96D0707858B101287FF420AFB4F814
:1031200050100819317800EB0110A0F80C5427E773
:10313000B4F850003178204400EB011101F20C4149
:103140003E2D06D86808EA0700D0401C07EA802018
:1031500005E06809EA0600D1401E48EA80200880A0
:103160000EE7B1693069814202D9091AB161B5E04F
:103170000846C6F81890B1E0088820F4F8400880A6
:10318000088840F400400BE03E2875D84208C0078C
:1031900000D0521C07EA822002E000BF48EA8220E9
:1031A0000880B5E093B9B4F850003178204400EBC2
:1031B0000110316900F2044069B13E2913D84B086F
:1031C000C90700D05B1C07EA83210180707888B1B1
:1031D000012832D03AE0018821F4F84101800188C9
:1031E00041F40041F1E74B09C90600D15B1E48EAF2
:1031F0008321EAE7B4F850003178204400EB011055
:10320000316900F20C4049B13E290FD84B08C9077B
:1032100000D05B1C07EA8321018017E0018821F4BC
:10322000F8410180018841F40041F5E74B09C906E6
:1032300000D15B1E48EA8321EEE7B4F8501008196C
:10324000317800EB0110318AA0F80C14F069A8B3B2
:10325000317834F82100430401D5430603D444F205
:103260004003184254D134F82100104048F2C00203
:10327000104324F821004BE03CE0B1693069814201
:1032800002D9091AB16102E00846C6F818908BB954
:10329000B4F850103278214401EB021101F20441DC
:1032A00068B13E2813D84208C30700D0521C07EA71
:1032B00082220A80717889B1012921D028E00A8808
:1032C00022F4F8420A800A8842F40042F1E74209F7
:1032D000C30600D1521E48EA8222EAE7B4F8501031
:1032E0003278214401EB021101F20C4100287FF4F5
:1032F0004BAF41E74209C0067FF450AF521E4DE785
:10330000B4F850201119327801EB0211A1F80C0425
:10331000317834F821004BF68F72104080F4405021
:1033200040EA0A0024F82100002013E50021A0F85B
:1033300044104FF43F41A0F84010002070470000B7
:103340000148FDF7D2BC000088080020B0F8440016
:103350007047000010B500EB42005C0800F580608B
:1033600009D000BF30F8042B01F8012B120A01F834
:10337000012B641EF6D1DA0701D00088087010BD59
:103380000020704711B98021A0F84C100020704730
:1033900010B55B1C00EB42005B0800F5806009D0B3
:1033A00011F8012B11F8014B42EA042220F8042BFA
:1033B0005B1EF5D110BDFEE70907090E002804DBEE
:1033C00000F1E02080F80014704700F00F0000F1D9
:1033D000E02080F8141D704710B5184C0022082119
:1033E0002046FDF7B2F8002210212046FDF7ADF887
:1033F000002220212046FDF7A8F800224021204687
:10340000FDF7A3F8002280212046FDF79EF8002258
:10341000A1152046FDF799F80022A1142046FDF7DA
:1034200094F8002261142046FDF78FF82046BDE88D
:10343000104000224FF48041FDF787B8000C014096
:1034400008B5FDF795F8FEF7DFFBFEF7CDF9FEF7BF
:103450002BFABE48BC494FF0000801604FF4E1313F
:10346000C0E901180C22C0F80C80C0E90482C0F841
:103470001880C0F81C80FEF7D7F808B172B6FEE7D6
:1034800001225103B248FDF760F8B04EDFF8C4B234
:10349000D83EB14D4FF0010906F1480A0024FFF76C
:1034A0009BFF00F05DF901215F465846FDF748F8A3
:1034B000297801287ED006F8018002213846FDF7E0
:1034C0003FF82978012831447DD081F80980042112
:1034D0003846FDF735F829780128314476D081F84F
:1034E000128008213846FDF72BF82978012831444D
:1034F00070D081F81B8010213846FDF721F829781B
:103500000128314469D081F8248020213846FDF714
:1035100017F829780128314462D081F82D804021A4
:103520003846FDF70DF82978012831445BD081F841
:10353000368080213846FDF703F829780128314488
:1035400054D081F83F8000BF96F84400012800D095
:103550000020687096F84700012800D00020A8706D
:1035600096F83300012800D00020687196F83400E6
:10357000012800D00020A871707E012800D0002012
:10358000E87096F83D00012800D00020287196F8D8
:103590003E00012800D00020E87196F82B10012988
:1035A00000D00021697211B1287285F8078096F861
:1035B000220002E004E006E008E0012819D01CE047
:1035C00006F8019079E781F8099080E781F8129078
:1035D00087E7FFE781F81B908DE781F8249094E757
:1035E00081F82D909BE781F83690A2E781F83F9013
:1035F000AAE786F8228086F8469004EBC40728786C
:10360000B919095C01292ED00AEB470737F81000D9
:1036100028B3514A0A3282F802806878A9784000BB
:1036200000EB411069790844A97900EB0110E978B1
:1036300000EB8100297900EB8110E97900EBC100F2
:10364000297A00EBC1101070434908220A3143481F
:10365000FEF743FD012251033D48FCF776FF297830
:1036600027F8118067E00AEB470232F81010491C76
:1036700089B222F81010012901D032295BD98DF8C6
:103680000080697A11B134495A3101E0324912316E
:103690003944085C8DF8000010F0FF0F27D000229D
:1036A0004FF400512A48FCF750FF2B4A9DF80000C8
:1036B0000A3290706878A978400000EB411069796F
:1036C0000844A97900EB0110E97800EB8100297921
:1036D00000EB8110E97900EBC100297A00EBC11001
:1036E00010701D4908220A311C48FEF7F6FC687864
:1036F000A978084302D01848EA3001E01648A23001
:1037000029783844405C8DF8000010F0FF0F12D08B
:103710006423012269460D48FDF7F0FF9DF8000083
:103720000A2808D10D208DF8000064230122694683
:103730000648FDF7E3FF641C082CFFF640AF0520A8
:10374000FCF7FCFDAAE60000003801406C030020F5
:10375000001001400008014000000020B0030020DC
:1037600010B51D4C1D48217881B1012911D00229C5
:1037700012D0032913D0042914D0052915D0062905
:1037800016D0072917D0082918D01BE001220821DC
:1037900016E00122102113E00122202110E0012275
:1037A00040210DE0012280210AE00122110207E000
:1037B0000122110304E00122510301E001229103DF
:1037C000FCF7C3FE2078401CC0B22070082801D945
:1037D0000020207010BD000000000020000C0140FF
:1037E00000000000000000000102030406070809B1
:1037F0000000000001020304183800080000002047
:103800009402000028010008DC390008940200201E
:10381000440F000084010008011210082022242611
:103820002D2A4610091E1F212325272E4910122953
:10383000081718122F3248E2141A151C0C13304CBA
:1038400010092B16090B0E33284F10243504070AD4
:103850000D0F34E0E4391B191136385251E6E31DDF
:1038600006051037E1502CE53C3E4042442A8110C9
:10387000093A3B3D3F414345494A35481280E948B2
:103880006A4D48214948134B4E3AE74811134A2CD8
:103890001008333537392D080720083132343638CF
:1038A000303D20081B6574756F5B5C201171777269
:1038B0007969705D7F20097366686B3B0A30086028
:1038C0006164676A6C274678766E2C2F1E7A636275
:1038D0006D2ED6111E232526285F48180821322474
:1038E0005E2A292B48274554554F7B7C1808515791
:1038F000525949507D481E5346484B3A4830087E3D
:103900004144474A4C224658564E3C3F2E5A434269
:103910004D3E482113491E1B0879041A85041AAD2F
:10392000041AD5041A29041A5504170403090412A9
:10393000013202164083042B5726020102030103C1
:103940001A1A03191F1182105324F413B1201B08F3
:10395000610413012182081A551001101A99141AD2
:103960008D041AA5041A8104140902221301011DF1
:10397000E0320904591A030B15092111011401221F
:103980003F16070581030419DEE924EA02240A210F
:10399000072429486912314B0A06F429CC100E0578
:1039A000010906A101050719E029E715281A2501D3
:1039B00075019508810295017508810395057501CA
:1039C0000508190129059112180803910395067538
:0C39D00008261A6530111429658112C008
:04000005080000ED02
:00000001FF
